{
  "_format": "hh-sol-artifact-1",
  "contractName": "Raffle",
  "sourceName": "contracts/Raffle.sol",
  "abi": [
    {
      "inputs": [
        {
          "internalType": "address",
          "name": "_vrfCoordinatorV2",
          "type": "address"
        },
        {
          "internalType": "uint256",
          "name": "entranceFee",
          "type": "uint256"
        },
        {
          "internalType": "bytes32",
          "name": "gasLane",
          "type": "bytes32"
        },
        {
          "internalType": "uint64",
          "name": "subscriptionId",
          "type": "uint64"
        },
        {
          "internalType": "uint32",
          "name": "callbackGasLimit",
          "type": "uint32"
        },
        {
          "internalType": "uint256",
          "name": "interval",
          "type": "uint256"
        }
      ],
      "stateMutability": "nonpayable",
      "type": "constructor"
    },
    {
      "inputs": [
        {
          "internalType": "address",
          "name": "have",
          "type": "address"
        },
        {
          "internalType": "address",
          "name": "want",
          "type": "address"
        }
      ],
      "name": "OnlyCoordinatorCanFulfill",
      "type": "error"
    },
    {
      "inputs": [
        {
          "internalType": "uint256",
          "name": "currentBalance",
          "type": "uint256"
        },
        {
          "internalType": "uint256",
          "name": "numPlayers",
          "type": "uint256"
        },
        {
          "internalType": "uint256",
          "name": "raffleState",
          "type": "uint256"
        }
      ],
      "name": "Raffle_UpkeepNotNeeded",
      "type": "error"
    },
    {
      "inputs": [],
      "name": "Raffle__NotEnoughETHEntered",
      "type": "error"
    },
    {
      "inputs": [],
      "name": "Raffle__NotOpen",
      "type": "error"
    },
    {
      "inputs": [],
      "name": "Raffle__TransferFailed",
      "type": "error"
    },
    {
      "anonymous": false,
      "inputs": [
        {
          "indexed": true,
          "internalType": "address",
          "name": "player",
          "type": "address"
        }
      ],
      "name": "RaffleEnter",
      "type": "event"
    },
    {
      "anonymous": false,
      "inputs": [
        {
          "indexed": false,
          "internalType": "uint256",
          "name": "requestId",
          "type": "uint256"
        }
      ],
      "name": "RequestedRaffleWinner",
      "type": "event"
    },
    {
      "anonymous": false,
      "inputs": [
        {
          "indexed": true,
          "internalType": "address",
          "name": "winner",
          "type": "address"
        }
      ],
      "name": "WinnerPicked",
      "type": "event"
    },
    {
      "inputs": [
        {
          "internalType": "bytes",
          "name": "",
          "type": "bytes"
        }
      ],
      "name": "checkUpkeep",
      "outputs": [
        {
          "internalType": "bool",
          "name": "upkeepNeeded",
          "type": "bool"
        },
        {
          "internalType": "bytes",
          "name": "",
          "type": "bytes"
        }
      ],
      "stateMutability": "nonpayable",
      "type": "function"
    },
    {
      "inputs": [],
      "name": "enterRaffle",
      "outputs": [],
      "stateMutability": "payable",
      "type": "function"
    },
    {
      "inputs": [],
      "name": "getEntranceFee",
      "outputs": [
        {
          "internalType": "uint256",
          "name": "",
          "type": "uint256"
        }
      ],
      "stateMutability": "view",
      "type": "function"
    },
    {
      "inputs": [],
      "name": "getLatestTimestamp",
      "outputs": [
        {
          "internalType": "uint256",
          "name": "",
          "type": "uint256"
        }
      ],
      "stateMutability": "view",
      "type": "function"
    },
    {
      "inputs": [],
      "name": "getNumWords",
      "outputs": [
        {
          "internalType": "uint256",
          "name": "",
          "type": "uint256"
        }
      ],
      "stateMutability": "pure",
      "type": "function"
    },
    {
      "inputs": [],
      "name": "getNumberOfPlayers",
      "outputs": [
        {
          "internalType": "uint256",
          "name": "",
          "type": "uint256"
        }
      ],
      "stateMutability": "view",
      "type": "function"
    },
    {
      "inputs": [
        {
          "internalType": "uint256",
          "name": "index",
          "type": "uint256"
        }
      ],
      "name": "getPlayers",
      "outputs": [
        {
          "internalType": "address",
          "name": "",
          "type": "address"
        }
      ],
      "stateMutability": "view",
      "type": "function"
    },
    {
      "inputs": [],
      "name": "getRaffleState",
      "outputs": [
        {
          "internalType": "enum Raffle.RaffleState",
          "name": "",
          "type": "uint8"
        }
      ],
      "stateMutability": "view",
      "type": "function"
    },
    {
      "inputs": [],
      "name": "getRecentWinner",
      "outputs": [
        {
          "internalType": "address",
          "name": "",
          "type": "address"
        }
      ],
      "stateMutability": "view",
      "type": "function"
    },
    {
      "inputs": [],
      "name": "getRequestConfirmations",
      "outputs": [
        {
          "internalType": "uint256",
          "name": "",
          "type": "uint256"
        }
      ],
      "stateMutability": "pure",
      "type": "function"
    },
    {
      "inputs": [
        {
          "internalType": "bytes",
          "name": "",
          "type": "bytes"
        }
      ],
      "name": "performUpkeep",
      "outputs": [],
      "stateMutability": "nonpayable",
      "type": "function"
    },
    {
      "inputs": [
        {
          "internalType": "uint256",
          "name": "requestId",
          "type": "uint256"
        },
        {
          "internalType": "uint256[]",
          "name": "randomWords",
          "type": "uint256[]"
        }
      ],
      "name": "rawFulfillRandomWords",
      "outputs": [],
      "stateMutability": "nonpayable",
      "type": "function"
    }
  ],
  "bytecode": "0x6101606040523480156200001257600080fd5b50604051620017af380380620017af833981810160405281019062000038919062000294565b858073ffffffffffffffffffffffffffffffffffffffff1660808173ffffffffffffffffffffffffffffffffffffffff1681525050508460a081815250508573ffffffffffffffffffffffffffffffffffffffff1660c08173ffffffffffffffffffffffffffffffffffffffff16815250508360e081815250508267ffffffffffffffff166101008167ffffffffffffffff16815250508163ffffffff166101208163ffffffff16815250506000600160146101000a81548160ff021916908360018111156200010d576200010c62000330565b5b0217905550426002819055508061014081815250505050505050506200035f565b600080fd5b600073ffffffffffffffffffffffffffffffffffffffff82169050919050565b6000620001608262000133565b9050919050565b620001728162000153565b81146200017e57600080fd5b50565b600081519050620001928162000167565b92915050565b6000819050919050565b620001ad8162000198565b8114620001b957600080fd5b50565b600081519050620001cd81620001a2565b92915050565b6000819050919050565b620001e881620001d3565b8114620001f457600080fd5b50565b6000815190506200020881620001dd565b92915050565b600067ffffffffffffffff82169050919050565b6200022d816200020e565b81146200023957600080fd5b50565b6000815190506200024d8162000222565b92915050565b600063ffffffff82169050919050565b6200026e8162000253565b81146200027a57600080fd5b50565b6000815190506200028e8162000263565b92915050565b60008060008060008060c08789031215620002b457620002b36200012e565b5b6000620002c489828a0162000181565b9650506020620002d789828a01620001bc565b9550506040620002ea89828a01620001f7565b9450506060620002fd89828a016200023c565b93505060806200031089828a016200027d565b92505060a06200032389828a01620001bc565b9150509295509295509295565b7f4e487b7100000000000000000000000000000000000000000000000000000000600052602160045260246000fd5b60805160a05160c05160e0516101005161012051610140516113e7620003c860003960006107bc015260006106550152600061063201526000610611015260006105d50152600081816102b401526103b10152600081816102f1015261034501526113e76000f3fe6080604052600436106100a75760003560e01c8063473f1ddc11610064578063473f1ddc1461019b57806353a2c19a146101c65780635f1b0fd8146101f15780636e04ff0d1461021c578063f43b52cb1461025a578063fd6673f514610285576100a7565b806309bc33a7146100ac578063115cbaf5146100d75780631fe543e3146101025780632cfcc5391461012b5780634585e33b14610135578063460e20491461015e575b600080fd5b3480156100b857600080fd5b506100c16102b0565b6040516100ce9190610b68565b60405180910390f35b3480156100e357600080fd5b506100ec6102d8565b6040516100f99190610bfa565b60405180910390f35b34801561010e57600080fd5b5061012960048036038101906101249190610dae565b6102ef565b005b6101336103af565b005b34801561014157600080fd5b5061015c60048036038101906101579190610e65565b61051e565b005b34801561016a57600080fd5b5061018560048036038101906101809190610eb2565b610727565b6040516101929190610f20565b60405180910390f35b3480156101a757600080fd5b506101b061076e565b6040516101bd9190610f20565b60405180910390f35b3480156101d257600080fd5b506101db610798565b6040516101e89190610b68565b60405180910390f35b3480156101fd57600080fd5b506102066107a7565b6040516102139190610b68565b60405180910390f35b34801561022857600080fd5b50610243600480360381019061023e9190610ff0565b6107b4565b6040516102519291906110dc565b60405180910390f35b34801561026657600080fd5b5061026f610861565b60405161027c9190610b68565b60405180910390f35b34801561029157600080fd5b5061029a61086b565b6040516102a79190610b68565b60405180910390f35b60007f0000000000000000000000000000000000000000000000000000000000000000905090565b6000600160149054906101000a900460ff16905090565b7f000000000000000000000000000000000000000000000000000000000000000073ffffffffffffffffffffffffffffffffffffffff163373ffffffffffffffffffffffffffffffffffffffff16146103a157337f00000000000000000000000000000000000000000000000000000000000000006040517f1cf993f400000000000000000000000000000000000000000000000000000000815260040161039892919061110c565b60405180910390fd5b6103ab8282610877565b5050565b7f0000000000000000000000000000000000000000000000000000000000000000341015610409576040517fbd4e069500000000000000000000000000000000000000000000000000000000815260040160405180910390fd5b6000600181111561041d5761041c610b83565b5b600160149054906101000a900460ff16600181111561043f5761043e610b83565b5b14610476576040517f1425571c00000000000000000000000000000000000000000000000000000000815260040160405180910390fd5b6000339080600181540180825580915050600190039060005260206000200160009091909190916101000a81548173ffffffffffffffffffffffffffffffffffffffff021916908373ffffffffffffffffffffffffffffffffffffffff1602179055503373ffffffffffffffffffffffffffffffffffffffff167f0805e1d667bddb8a95f0f09880cf94f403fb596ce79928d9f29b74203ba284d460405160405180910390a2565b6000610538604051806020016040528060008152506107b4565b509050806105a75747600080549050600160149054906101000a900460ff16600181111561056957610568610b83565b5b6040517fe059521b00000000000000000000000000000000000000000000000000000000815260040161059e93929190611135565b60405180910390fd5b60018060146101000a81548160ff021916908360018111156105cc576105cb610b83565b5b021790555060007f000000000000000000000000000000000000000000000000000000000000000073ffffffffffffffffffffffffffffffffffffffff16635d3b1d307f00000000000000000000000000000000000000000000000000000000000000007f000000000000000000000000000000000000000000000000000000000000000060037f000000000000000000000000000000000000000000000000000000000000000060016040518663ffffffff1660e01b81526004016106969594939291906111e4565b602060405180830381600087803b1580156106b057600080fd5b505af11580156106c4573d6000803e3d6000fd5b505050506040513d601f19601f820116820180604052508101906106e8919061124c565b90507fcd6e45c8998311cab7e9d4385596cac867e20a0587194b954fa3a731c93ce78b816040516107199190610b68565b60405180910390a150505050565b600080828154811061073c5761073b611279565b5b9060005260206000200160009054906101000a900473ffffffffffffffffffffffffffffffffffffffff169050919050565b6000600160009054906101000a900473ffffffffffffffffffffffffffffffffffffffff16905090565b6000600163ffffffff16905090565b6000600361ffff16905090565b6000606060007f0000000000000000000000000000000000000000000000000000000000000000600254426107e991906112d7565b119050600080600080549050119050600080471190506000600160149054906101000a900460ff16600181111561082357610822610b83565b5b6000600181111561083757610836610b83565b5b1490508080156108445750835b801561084d5750825b80156108565750815b955050505050915091565b6000600254905090565b60008080549050905090565b600080805490508260008151811061089257610891611279565b5b60200260200101516108a4919061133a565b905060008082815481106108bb576108ba611279565b5b9060005260206000200160009054906101000a900473ffffffffffffffffffffffffffffffffffffffff16905080600160006101000a81548173ffffffffffffffffffffffffffffffffffffffff021916908373ffffffffffffffffffffffffffffffffffffffff1602179055506000600160146101000a81548160ff0219169083600181111561094f5761094e610b83565b5b0217905550600067ffffffffffffffff81111561096f5761096e610c6b565b5b60405190808252806020026020018201604052801561099d5781602001602082028036833780820191505090505b50600090805190602001906109b3929190610aa8565b504260028190555060008173ffffffffffffffffffffffffffffffffffffffff16476040516109e19061139c565b60006040518083038185875af1925050503d8060008114610a1e576040519150601f19603f3d011682016040523d82523d6000602084013e610a23565b606091505b5050905080610a5e576040517fa1d04b3900000000000000000000000000000000000000000000000000000000815260040160405180910390fd5b8173ffffffffffffffffffffffffffffffffffffffff167f5b690ec4a06fe979403046eaeea5b3ce38524683c3001f662c8b5a829632f7df60405160405180910390a25050505050565b828054828255906000526020600020908101928215610b21579160200282015b82811115610b205782518260006101000a81548173ffffffffffffffffffffffffffffffffffffffff021916908373ffffffffffffffffffffffffffffffffffffffff16021790555091602001919060010190610ac8565b5b509050610b2e9190610b32565b5090565b5b80821115610b4b576000816000905550600101610b33565b5090565b6000819050919050565b610b6281610b4f565b82525050565b6000602082019050610b7d6000830184610b59565b92915050565b7f4e487b7100000000000000000000000000000000000000000000000000000000600052602160045260246000fd5b60028110610bc357610bc2610b83565b5b50565b6000819050610bd482610bb2565b919050565b6000610be482610bc6565b9050919050565b610bf481610bd9565b82525050565b6000602082019050610c0f6000830184610beb565b92915050565b6000604051905090565b600080fd5b600080fd5b610c3281610b4f565b8114610c3d57600080fd5b50565b600081359050610c4f81610c29565b92915050565b600080fd5b6000601f19601f8301169050919050565b7f4e487b7100000000000000000000000000000000000000000000000000000000600052604160045260246000fd5b610ca382610c5a565b810181811067ffffffffffffffff82111715610cc257610cc1610c6b565b5b80604052505050565b6000610cd5610c15565b9050610ce18282610c9a565b919050565b600067ffffffffffffffff821115610d0157610d00610c6b565b5b602082029050602081019050919050565b600080fd5b6000610d2a610d2584610ce6565b610ccb565b90508083825260208201905060208402830185811115610d4d57610d4c610d12565b5b835b81811015610d765780610d628882610c40565b845260208401935050602081019050610d4f565b5050509392505050565b600082601f830112610d9557610d94610c55565b5b8135610da5848260208601610d17565b91505092915050565b60008060408385031215610dc557610dc4610c1f565b5b6000610dd385828601610c40565b925050602083013567ffffffffffffffff811115610df457610df3610c24565b5b610e0085828601610d80565b9150509250929050565b600080fd5b60008083601f840112610e2557610e24610c55565b5b8235905067ffffffffffffffff811115610e4257610e41610e0a565b5b602083019150836001820283011115610e5e57610e5d610d12565b5b9250929050565b60008060208385031215610e7c57610e7b610c1f565b5b600083013567ffffffffffffffff811115610e9a57610e99610c24565b5b610ea685828601610e0f565b92509250509250929050565b600060208284031215610ec857610ec7610c1f565b5b6000610ed684828501610c40565b91505092915050565b600073ffffffffffffffffffffffffffffffffffffffff82169050919050565b6000610f0a82610edf565b9050919050565b610f1a81610eff565b82525050565b6000602082019050610f356000830184610f11565b92915050565b600080fd5b600067ffffffffffffffff821115610f5b57610f5a610c6b565b5b610f6482610c5a565b9050602081019050919050565b82818337600083830152505050565b6000610f93610f8e84610f40565b610ccb565b905082815260208101848484011115610faf57610fae610f3b565b5b610fba848285610f71565b509392505050565b600082601f830112610fd757610fd6610c55565b5b8135610fe7848260208601610f80565b91505092915050565b60006020828403121561100657611005610c1f565b5b600082013567ffffffffffffffff81111561102457611023610c24565b5b61103084828501610fc2565b91505092915050565b60008115159050919050565b61104e81611039565b82525050565b600081519050919050565b600082825260208201905092915050565b60005b8381101561108e578082015181840152602081019050611073565b8381111561109d576000848401525b50505050565b60006110ae82611054565b6110b8818561105f565b93506110c8818560208601611070565b6110d181610c5a565b840191505092915050565b60006040820190506110f16000830185611045565b818103602083015261110381846110a3565b90509392505050565b60006040820190506111216000830185610f11565b61112e6020830184610f11565b9392505050565b600060608201905061114a6000830186610b59565b6111576020830185610b59565b6111646040830184610b59565b949350505050565b6000819050919050565b61117f8161116c565b82525050565b600067ffffffffffffffff82169050919050565b6111a281611185565b82525050565b600061ffff82169050919050565b6111bf816111a8565b82525050565b600063ffffffff82169050919050565b6111de816111c5565b82525050565b600060a0820190506111f96000830188611176565b6112066020830187611199565b61121360408301866111b6565b61122060608301856111d5565b61122d60808301846111d5565b9695505050505050565b60008151905061124681610c29565b92915050565b60006020828403121561126257611261610c1f565b5b600061127084828501611237565b91505092915050565b7f4e487b7100000000000000000000000000000000000000000000000000000000600052603260045260246000fd5b7f4e487b7100000000000000000000000000000000000000000000000000000000600052601160045260246000fd5b60006112e282610b4f565b91506112ed83610b4f565b925082821015611300576112ff6112a8565b5b828203905092915050565b7f4e487b7100000000000000000000000000000000000000000000000000000000600052601260045260246000fd5b600061134582610b4f565b915061135083610b4f565b9250826113605761135f61130b565b5b828206905092915050565b600081905092915050565b50565b600061138660008361136b565b915061139182611376565b600082019050919050565b60006113a782611379565b915081905091905056fea26469706673582212208223be40afc82fcfe1e2489059d24869be79fa37055178aa72dfc357cc58087264736f6c63430008090033",
  "linkReferences": {},
  "deployedLinkReferences": {}
}