{
  "_format": "hh-sol-artifact-1",
  "contractName": "Raffle",
  "sourceName": "contracts/Raffle.sol",
  "abi": [
    {
      "inputs": [
        {
          "internalType": "address",
          "name": "_vrfCoordinatorV2",
          "type": "address"
        },
        {
          "internalType": "uint256",
          "name": "entranceFee",
          "type": "uint256"
        },
        {
          "internalType": "bytes32",
          "name": "gasLane",
          "type": "bytes32"
        },
        {
          "internalType": "uint64",
          "name": "subscriptionId",
          "type": "uint64"
        },
        {
          "internalType": "uint32",
          "name": "callbackGasLimit",
          "type": "uint32"
        },
        {
          "internalType": "uint256",
          "name": "interval",
          "type": "uint256"
        }
      ],
      "stateMutability": "nonpayable",
      "type": "constructor"
    },
    {
      "inputs": [
        {
          "internalType": "address",
          "name": "have",
          "type": "address"
        },
        {
          "internalType": "address",
          "name": "want",
          "type": "address"
        }
      ],
      "name": "OnlyCoordinatorCanFulfill",
      "type": "error"
    },
    {
      "inputs": [
        {
          "internalType": "uint256",
          "name": "currentBalance",
          "type": "uint256"
        },
        {
          "internalType": "uint256",
          "name": "numPlayers",
          "type": "uint256"
        },
        {
          "internalType": "uint256",
          "name": "raffleState",
          "type": "uint256"
        }
      ],
      "name": "Raffle_UpkeepNotNeeded",
      "type": "error"
    },
    {
      "inputs": [],
      "name": "Raffle__NotEnoughETHEntered",
      "type": "error"
    },
    {
      "inputs": [],
      "name": "Raffle__NotOpen",
      "type": "error"
    },
    {
      "inputs": [],
      "name": "Raffle__TransferFailed",
      "type": "error"
    },
    {
      "anonymous": false,
      "inputs": [
        {
          "indexed": true,
          "internalType": "address",
          "name": "player",
          "type": "address"
        }
      ],
      "name": "RaffleEnter",
      "type": "event"
    },
    {
      "anonymous": false,
      "inputs": [
        {
          "indexed": false,
          "internalType": "uint256",
          "name": "requestId",
          "type": "uint256"
        }
      ],
      "name": "RequestedRaffleWinner",
      "type": "event"
    },
    {
      "anonymous": false,
      "inputs": [
        {
          "indexed": true,
          "internalType": "address",
          "name": "winner",
          "type": "address"
        }
      ],
      "name": "WinnerPicked",
      "type": "event"
    },
    {
      "inputs": [
        {
          "internalType": "bytes",
          "name": "",
          "type": "bytes"
        }
      ],
      "name": "checkUpkeep",
      "outputs": [
        {
          "internalType": "bool",
          "name": "upkeepNeeded",
          "type": "bool"
        },
        {
          "internalType": "bytes",
          "name": "",
          "type": "bytes"
        }
      ],
      "stateMutability": "nonpayable",
      "type": "function"
    },
    {
      "inputs": [],
      "name": "enterRaffle",
      "outputs": [],
      "stateMutability": "payable",
      "type": "function"
    },
    {
      "inputs": [],
      "name": "getCallbackGasLimit",
      "outputs": [
        {
          "internalType": "uint256",
          "name": "",
          "type": "uint256"
        }
      ],
      "stateMutability": "view",
      "type": "function"
    },
    {
      "inputs": [],
      "name": "getEntranceFee",
      "outputs": [
        {
          "internalType": "uint256",
          "name": "",
          "type": "uint256"
        }
      ],
      "stateMutability": "view",
      "type": "function"
    },
    {
      "inputs": [],
      "name": "getGasLane",
      "outputs": [
        {
          "internalType": "bytes32",
          "name": "",
          "type": "bytes32"
        }
      ],
      "stateMutability": "view",
      "type": "function"
    },
    {
      "inputs": [],
      "name": "getInterval",
      "outputs": [
        {
          "internalType": "uint256",
          "name": "",
          "type": "uint256"
        }
      ],
      "stateMutability": "view",
      "type": "function"
    },
    {
      "inputs": [],
      "name": "getLatestTimestamp",
      "outputs": [
        {
          "internalType": "uint256",
          "name": "",
          "type": "uint256"
        }
      ],
      "stateMutability": "view",
      "type": "function"
    },
    {
      "inputs": [],
      "name": "getNumWords",
      "outputs": [
        {
          "internalType": "uint256",
          "name": "",
          "type": "uint256"
        }
      ],
      "stateMutability": "pure",
      "type": "function"
    },
    {
      "inputs": [],
      "name": "getNumberOfPlayers",
      "outputs": [
        {
          "internalType": "uint256",
          "name": "",
          "type": "uint256"
        }
      ],
      "stateMutability": "view",
      "type": "function"
    },
    {
      "inputs": [
        {
          "internalType": "uint256",
          "name": "index",
          "type": "uint256"
        }
      ],
      "name": "getPlayers",
      "outputs": [
        {
          "internalType": "address",
          "name": "",
          "type": "address"
        }
      ],
      "stateMutability": "view",
      "type": "function"
    },
    {
      "inputs": [],
      "name": "getRaffleState",
      "outputs": [
        {
          "internalType": "enum Raffle.RaffleState",
          "name": "",
          "type": "uint8"
        }
      ],
      "stateMutability": "view",
      "type": "function"
    },
    {
      "inputs": [],
      "name": "getRecentWinner",
      "outputs": [
        {
          "internalType": "address",
          "name": "",
          "type": "address"
        }
      ],
      "stateMutability": "view",
      "type": "function"
    },
    {
      "inputs": [],
      "name": "getRequestConfirmations",
      "outputs": [
        {
          "internalType": "uint256",
          "name": "",
          "type": "uint256"
        }
      ],
      "stateMutability": "pure",
      "type": "function"
    },
    {
      "inputs": [],
      "name": "getSubscriptionId",
      "outputs": [
        {
          "internalType": "uint64",
          "name": "",
          "type": "uint64"
        }
      ],
      "stateMutability": "view",
      "type": "function"
    },
    {
      "inputs": [
        {
          "internalType": "bytes",
          "name": "",
          "type": "bytes"
        }
      ],
      "name": "performUpkeep",
      "outputs": [],
      "stateMutability": "nonpayable",
      "type": "function"
    },
    {
      "inputs": [
        {
          "internalType": "uint256",
          "name": "requestId",
          "type": "uint256"
        },
        {
          "internalType": "uint256[]",
          "name": "randomWords",
          "type": "uint256[]"
        }
      ],
      "name": "rawFulfillRandomWords",
      "outputs": [],
      "stateMutability": "nonpayable",
      "type": "function"
    }
  ],
  "bytecode": "0x6101606040523480156200001257600080fd5b506040516200199f3803806200199f833981810160405281019062000038919062000294565b858073ffffffffffffffffffffffffffffffffffffffff1660808173ffffffffffffffffffffffffffffffffffffffff1681525050508460a081815250508573ffffffffffffffffffffffffffffffffffffffff1660c08173ffffffffffffffffffffffffffffffffffffffff16815250508360e081815250508267ffffffffffffffff166101008167ffffffffffffffff16815250508163ffffffff166101208163ffffffff16815250506000600160146101000a81548160ff021916908360018111156200010d576200010c62000330565b5b0217905550426002819055508061014081815250505050505050506200035f565b600080fd5b600073ffffffffffffffffffffffffffffffffffffffff82169050919050565b6000620001608262000133565b9050919050565b620001728162000153565b81146200017e57600080fd5b50565b600081519050620001928162000167565b92915050565b6000819050919050565b620001ad8162000198565b8114620001b957600080fd5b50565b600081519050620001cd81620001a2565b92915050565b6000819050919050565b620001e881620001d3565b8114620001f457600080fd5b50565b6000815190506200020881620001dd565b92915050565b600067ffffffffffffffff82169050919050565b6200022d816200020e565b81146200023957600080fd5b50565b6000815190506200024d8162000222565b92915050565b600063ffffffff82169050919050565b6200026e8162000253565b81146200027a57600080fd5b50565b6000815190506200028e8162000263565b92915050565b60008060008060008060c08789031215620002b457620002b36200012e565b5b6000620002c489828a0162000181565b9650506020620002d789828a01620001bc565b9550506040620002ea89828a01620001f7565b9450506060620002fd89828a016200023c565b93505060806200031089828a016200027d565b92505060a06200032389828a01620001bc565b9150509295509295509295565b7f4e487b7100000000000000000000000000000000000000000000000000000000600052602160045260246000fd5b60805160a05160c05160e0516101005161012051610140516115bb620003e4600039600081816108b4015261095d01526000818161074d01526109d501526000818161072a01526109ad0152600081816107090152610985015260006106cd0152600081816103ac01526104a90152600081816103e9015261043d01526115bb6000f3fe6080604052600436106100f35760003560e01c80635f1b0fd81161008a578063de3d9fb711610059578063de3d9fb7146102fc578063de8be8e714610327578063f43b52cb14610352578063fd6673f51461037d576100f3565b80635f1b0fd81461023d5780636e04ff0d1461026857806391ad27b4146102a6578063c19dd76b146102d1576100f3565b80634585e33b116100c65780634585e33b14610181578063460e2049146101aa578063473f1ddc146101e757806353a2c19a14610212576100f3565b806309bc33a7146100f8578063115cbaf5146101235780631fe543e31461014e5780632cfcc53914610177575b600080fd5b34801561010457600080fd5b5061010d6103a8565b60405161011a9190610d06565b60405180910390f35b34801561012f57600080fd5b506101386103d0565b6040516101459190610d98565b60405180910390f35b34801561015a57600080fd5b5061017560048036038101906101709190610f4c565b6103e7565b005b61017f6104a7565b005b34801561018d57600080fd5b506101a860048036038101906101a39190611003565b610616565b005b3480156101b657600080fd5b506101d160048036038101906101cc9190611050565b61081f565b6040516101de91906110be565b60405180910390f35b3480156101f357600080fd5b506101fc610866565b60405161020991906110be565b60405180910390f35b34801561021e57600080fd5b50610227610890565b6040516102349190610d06565b60405180910390f35b34801561024957600080fd5b5061025261089f565b60405161025f9190610d06565b60405180910390f35b34801561027457600080fd5b5061028f600480360381019061028a919061118e565b6108ac565b60405161029d92919061127a565b60405180910390f35b3480156102b257600080fd5b506102bb610959565b6040516102c89190610d06565b60405180910390f35b3480156102dd57600080fd5b506102e6610981565b6040516102f391906112c3565b60405180910390f35b34801561030857600080fd5b506103116109a9565b60405161031e9190611301565b60405180910390f35b34801561033357600080fd5b5061033c6109d1565b6040516103499190610d06565b60405180910390f35b34801561035e57600080fd5b506103676109ff565b6040516103749190610d06565b60405180910390f35b34801561038957600080fd5b50610392610a09565b60405161039f9190610d06565b60405180910390f35b60007f0000000000000000000000000000000000000000000000000000000000000000905090565b6000600160149054906101000a900460ff16905090565b7f000000000000000000000000000000000000000000000000000000000000000073ffffffffffffffffffffffffffffffffffffffff163373ffffffffffffffffffffffffffffffffffffffff161461049957337f00000000000000000000000000000000000000000000000000000000000000006040517f1cf993f400000000000000000000000000000000000000000000000000000000815260040161049092919061131c565b60405180910390fd5b6104a38282610a15565b5050565b7f0000000000000000000000000000000000000000000000000000000000000000341015610501576040517fbd4e069500000000000000000000000000000000000000000000000000000000815260040160405180910390fd5b6000600181111561051557610514610d21565b5b600160149054906101000a900460ff16600181111561053757610536610d21565b5b1461056e576040517f1425571c00000000000000000000000000000000000000000000000000000000815260040160405180910390fd5b6000339080600181540180825580915050600190039060005260206000200160009091909190916101000a81548173ffffffffffffffffffffffffffffffffffffffff021916908373ffffffffffffffffffffffffffffffffffffffff1602179055503373ffffffffffffffffffffffffffffffffffffffff167f0805e1d667bddb8a95f0f09880cf94f403fb596ce79928d9f29b74203ba284d460405160405180910390a2565b6000610630604051806020016040528060008152506108ac565b5090508061069f5747600080549050600160149054906101000a900460ff16600181111561066157610660610d21565b5b6040517fe059521b00000000000000000000000000000000000000000000000000000000815260040161069693929190611345565b60405180910390fd5b60018060146101000a81548160ff021916908360018111156106c4576106c3610d21565b5b021790555060007f000000000000000000000000000000000000000000000000000000000000000073ffffffffffffffffffffffffffffffffffffffff16635d3b1d307f00000000000000000000000000000000000000000000000000000000000000007f000000000000000000000000000000000000000000000000000000000000000060037f000000000000000000000000000000000000000000000000000000000000000060016040518663ffffffff1660e01b815260040161078e9594939291906113b8565b602060405180830381600087803b1580156107a857600080fd5b505af11580156107bc573d6000803e3d6000fd5b505050506040513d601f19601f820116820180604052508101906107e09190611420565b90507fcd6e45c8998311cab7e9d4385596cac867e20a0587194b954fa3a731c93ce78b816040516108119190610d06565b60405180910390a150505050565b60008082815481106108345761083361144d565b5b9060005260206000200160009054906101000a900473ffffffffffffffffffffffffffffffffffffffff169050919050565b6000600160009054906101000a900473ffffffffffffffffffffffffffffffffffffffff16905090565b6000600163ffffffff16905090565b6000600361ffff16905090565b6000606060007f0000000000000000000000000000000000000000000000000000000000000000600254426108e191906114ab565b119050600080600080549050119050600080471190506000600160149054906101000a900460ff16600181111561091b5761091a610d21565b5b6000600181111561092f5761092e610d21565b5b14905080801561093c5750835b80156109455750825b801561094e5750815b955050505050915091565b60007f0000000000000000000000000000000000000000000000000000000000000000905090565b60007f0000000000000000000000000000000000000000000000000000000000000000905090565b60007f0000000000000000000000000000000000000000000000000000000000000000905090565b60007f000000000000000000000000000000000000000000000000000000000000000063ffffffff16905090565b6000600254905090565b60008080549050905090565b6000808054905082600081518110610a3057610a2f61144d565b5b6020026020010151610a42919061150e565b90506000808281548110610a5957610a5861144d565b5b9060005260206000200160009054906101000a900473ffffffffffffffffffffffffffffffffffffffff16905080600160006101000a81548173ffffffffffffffffffffffffffffffffffffffff021916908373ffffffffffffffffffffffffffffffffffffffff1602179055506000600160146101000a81548160ff02191690836001811115610aed57610aec610d21565b5b0217905550600067ffffffffffffffff811115610b0d57610b0c610e09565b5b604051908082528060200260200182016040528015610b3b5781602001602082028036833780820191505090505b5060009080519060200190610b51929190610c46565b504260028190555060008173ffffffffffffffffffffffffffffffffffffffff1647604051610b7f90611570565b60006040518083038185875af1925050503d8060008114610bbc576040519150601f19603f3d011682016040523d82523d6000602084013e610bc1565b606091505b5050905080610bfc576040517fa1d04b3900000000000000000000000000000000000000000000000000000000815260040160405180910390fd5b8173ffffffffffffffffffffffffffffffffffffffff167f5b690ec4a06fe979403046eaeea5b3ce38524683c3001f662c8b5a829632f7df60405160405180910390a25050505050565b828054828255906000526020600020908101928215610cbf579160200282015b82811115610cbe5782518260006101000a81548173ffffffffffffffffffffffffffffffffffffffff021916908373ffffffffffffffffffffffffffffffffffffffff16021790555091602001919060010190610c66565b5b509050610ccc9190610cd0565b5090565b5b80821115610ce9576000816000905550600101610cd1565b5090565b6000819050919050565b610d0081610ced565b82525050565b6000602082019050610d1b6000830184610cf7565b92915050565b7f4e487b7100000000000000000000000000000000000000000000000000000000600052602160045260246000fd5b60028110610d6157610d60610d21565b5b50565b6000819050610d7282610d50565b919050565b6000610d8282610d64565b9050919050565b610d9281610d77565b82525050565b6000602082019050610dad6000830184610d89565b92915050565b6000604051905090565b600080fd5b600080fd5b610dd081610ced565b8114610ddb57600080fd5b50565b600081359050610ded81610dc7565b92915050565b600080fd5b6000601f19601f8301169050919050565b7f4e487b7100000000000000000000000000000000000000000000000000000000600052604160045260246000fd5b610e4182610df8565b810181811067ffffffffffffffff82111715610e6057610e5f610e09565b5b80604052505050565b6000610e73610db3565b9050610e7f8282610e38565b919050565b600067ffffffffffffffff821115610e9f57610e9e610e09565b5b602082029050602081019050919050565b600080fd5b6000610ec8610ec384610e84565b610e69565b90508083825260208201905060208402830185811115610eeb57610eea610eb0565b5b835b81811015610f145780610f008882610dde565b845260208401935050602081019050610eed565b5050509392505050565b600082601f830112610f3357610f32610df3565b5b8135610f43848260208601610eb5565b91505092915050565b60008060408385031215610f6357610f62610dbd565b5b6000610f7185828601610dde565b925050602083013567ffffffffffffffff811115610f9257610f91610dc2565b5b610f9e85828601610f1e565b9150509250929050565b600080fd5b60008083601f840112610fc357610fc2610df3565b5b8235905067ffffffffffffffff811115610fe057610fdf610fa8565b5b602083019150836001820283011115610ffc57610ffb610eb0565b5b9250929050565b6000806020838503121561101a57611019610dbd565b5b600083013567ffffffffffffffff81111561103857611037610dc2565b5b61104485828601610fad565b92509250509250929050565b60006020828403121561106657611065610dbd565b5b600061107484828501610dde565b91505092915050565b600073ffffffffffffffffffffffffffffffffffffffff82169050919050565b60006110a88261107d565b9050919050565b6110b88161109d565b82525050565b60006020820190506110d360008301846110af565b92915050565b600080fd5b600067ffffffffffffffff8211156110f9576110f8610e09565b5b61110282610df8565b9050602081019050919050565b82818337600083830152505050565b600061113161112c846110de565b610e69565b90508281526020810184848401111561114d5761114c6110d9565b5b61115884828561110f565b509392505050565b600082601f83011261117557611174610df3565b5b813561118584826020860161111e565b91505092915050565b6000602082840312156111a4576111a3610dbd565b5b600082013567ffffffffffffffff8111156111c2576111c1610dc2565b5b6111ce84828501611160565b91505092915050565b60008115159050919050565b6111ec816111d7565b82525050565b600081519050919050565b600082825260208201905092915050565b60005b8381101561122c578082015181840152602081019050611211565b8381111561123b576000848401525b50505050565b600061124c826111f2565b61125681856111fd565b935061126681856020860161120e565b61126f81610df8565b840191505092915050565b600060408201905061128f60008301856111e3565b81810360208301526112a18184611241565b90509392505050565b6000819050919050565b6112bd816112aa565b82525050565b60006020820190506112d860008301846112b4565b92915050565b600067ffffffffffffffff82169050919050565b6112fb816112de565b82525050565b600060208201905061131660008301846112f2565b92915050565b600060408201905061133160008301856110af565b61133e60208301846110af565b9392505050565b600060608201905061135a6000830186610cf7565b6113676020830185610cf7565b6113746040830184610cf7565b949350505050565b600061ffff82169050919050565b6113938161137c565b82525050565b600063ffffffff82169050919050565b6113b281611399565b82525050565b600060a0820190506113cd60008301886112b4565b6113da60208301876112f2565b6113e7604083018661138a565b6113f460608301856113a9565b61140160808301846113a9565b9695505050505050565b60008151905061141a81610dc7565b92915050565b60006020828403121561143657611435610dbd565b5b60006114448482850161140b565b91505092915050565b7f4e487b7100000000000000000000000000000000000000000000000000000000600052603260045260246000fd5b7f4e487b7100000000000000000000000000000000000000000000000000000000600052601160045260246000fd5b60006114b682610ced565b91506114c183610ced565b9250828210156114d4576114d361147c565b5b828203905092915050565b7f4e487b7100000000000000000000000000000000000000000000000000000000600052601260045260246000fd5b600061151982610ced565b915061152483610ced565b925082611534576115336114df565b5b828206905092915050565b600081905092915050565b50565b600061155a60008361153f565b91506115658261154a565b600082019050919050565b600061157b8261154d565b915081905091905056fea264697066735822122033e1376871377d553ed7d8422fec97090a5508cd8bff386a77fd3891cfb0412f64736f6c63430008090033",
  "linkReferences": {},
  "deployedLinkReferences": {}
}