{
  "_format": "hh-sol-artifact-1",
  "contractName": "Raffle",
  "sourceName": "contracts/Raffle.sol",
  "abi": [
    {
      "inputs": [
        {
          "internalType": "address",
          "name": "_vrfCoordinatorV2",
          "type": "address"
        },
        {
          "internalType": "uint256",
          "name": "entranceFee",
          "type": "uint256"
        },
        {
          "internalType": "bytes32",
          "name": "gasLane",
          "type": "bytes32"
        },
        {
          "internalType": "uint64",
          "name": "subscriptionId",
          "type": "uint64"
        },
        {
          "internalType": "uint32",
          "name": "callbackGasLimit",
          "type": "uint32"
        },
        {
          "internalType": "uint256",
          "name": "interval",
          "type": "uint256"
        }
      ],
      "stateMutability": "nonpayable",
      "type": "constructor"
    },
    {
      "inputs": [
        {
          "internalType": "address",
          "name": "have",
          "type": "address"
        },
        {
          "internalType": "address",
          "name": "want",
          "type": "address"
        }
      ],
      "name": "OnlyCoordinatorCanFulfill",
      "type": "error"
    },
    {
      "inputs": [
        {
          "internalType": "uint256",
          "name": "currentBalance",
          "type": "uint256"
        },
        {
          "internalType": "uint256",
          "name": "numPlayers",
          "type": "uint256"
        },
        {
          "internalType": "uint256",
          "name": "raffleState",
          "type": "uint256"
        }
      ],
      "name": "Raffle_UpkeepNotNeeded",
      "type": "error"
    },
    {
      "inputs": [],
      "name": "Raffle__NotEnoughETHEntered",
      "type": "error"
    },
    {
      "inputs": [],
      "name": "Raffle__NotOpen",
      "type": "error"
    },
    {
      "inputs": [],
      "name": "Raffle__TransferFailed",
      "type": "error"
    },
    {
      "anonymous": false,
      "inputs": [
        {
          "indexed": true,
          "internalType": "address",
          "name": "player",
          "type": "address"
        }
      ],
      "name": "RaffleEnter",
      "type": "event"
    },
    {
      "anonymous": false,
      "inputs": [
        {
          "indexed": false,
          "internalType": "uint256",
          "name": "requestId",
          "type": "uint256"
        }
      ],
      "name": "RequestedRaffleWinner",
      "type": "event"
    },
    {
      "anonymous": false,
      "inputs": [
        {
          "indexed": true,
          "internalType": "address",
          "name": "winner",
          "type": "address"
        }
      ],
      "name": "WinnerPicked",
      "type": "event"
    },
    {
      "inputs": [
        {
          "internalType": "bytes",
          "name": "",
          "type": "bytes"
        }
      ],
      "name": "checkUpkeep",
      "outputs": [
        {
          "internalType": "bool",
          "name": "upkeepNeeded",
          "type": "bool"
        },
        {
          "internalType": "bytes",
          "name": "",
          "type": "bytes"
        }
      ],
      "stateMutability": "nonpayable",
      "type": "function"
    },
    {
      "inputs": [],
      "name": "enterRaffle",
      "outputs": [],
      "stateMutability": "payable",
      "type": "function"
    },
    {
      "inputs": [],
      "name": "getCallbackGasLimit",
      "outputs": [
        {
          "internalType": "uint256",
          "name": "",
          "type": "uint256"
        }
      ],
      "stateMutability": "view",
      "type": "function"
    },
    {
      "inputs": [],
      "name": "getEntranceFee",
      "outputs": [
        {
          "internalType": "uint256",
          "name": "",
          "type": "uint256"
        }
      ],
      "stateMutability": "view",
      "type": "function"
    },
    {
      "inputs": [],
      "name": "getGasLane",
      "outputs": [
        {
          "internalType": "bytes32",
          "name": "",
          "type": "bytes32"
        }
      ],
      "stateMutability": "view",
      "type": "function"
    },
    {
      "inputs": [],
      "name": "getInterval",
      "outputs": [
        {
          "internalType": "uint256",
          "name": "",
          "type": "uint256"
        }
      ],
      "stateMutability": "view",
      "type": "function"
    },
    {
      "inputs": [],
      "name": "getLatestTimestamp",
      "outputs": [
        {
          "internalType": "uint256",
          "name": "",
          "type": "uint256"
        }
      ],
      "stateMutability": "view",
      "type": "function"
    },
    {
      "inputs": [],
      "name": "getNumWords",
      "outputs": [
        {
          "internalType": "uint256",
          "name": "",
          "type": "uint256"
        }
      ],
      "stateMutability": "pure",
      "type": "function"
    },
    {
      "inputs": [],
      "name": "getNumberOfPlayers",
      "outputs": [
        {
          "internalType": "uint256",
          "name": "",
          "type": "uint256"
        }
      ],
      "stateMutability": "view",
      "type": "function"
    },
    {
      "inputs": [
        {
          "internalType": "uint256",
          "name": "index",
          "type": "uint256"
        }
      ],
      "name": "getPlayers",
      "outputs": [
        {
          "internalType": "address",
          "name": "",
          "type": "address"
        }
      ],
      "stateMutability": "view",
      "type": "function"
    },
    {
      "inputs": [],
      "name": "getRaffleState",
      "outputs": [
        {
          "internalType": "enum Raffle.RaffleState",
          "name": "",
          "type": "uint8"
        }
      ],
      "stateMutability": "view",
      "type": "function"
    },
    {
      "inputs": [],
      "name": "getRecentWinner",
      "outputs": [
        {
          "internalType": "address",
          "name": "",
          "type": "address"
        }
      ],
      "stateMutability": "view",
      "type": "function"
    },
    {
      "inputs": [],
      "name": "getRequestConfirmations",
      "outputs": [
        {
          "internalType": "uint256",
          "name": "",
          "type": "uint256"
        }
      ],
      "stateMutability": "pure",
      "type": "function"
    },
    {
      "inputs": [],
      "name": "getSubscriptionId",
      "outputs": [
        {
          "internalType": "uint64",
          "name": "",
          "type": "uint64"
        }
      ],
      "stateMutability": "view",
      "type": "function"
    },
    {
      "inputs": [
        {
          "internalType": "bytes",
          "name": "",
          "type": "bytes"
        }
      ],
      "name": "performUpkeep",
      "outputs": [],
      "stateMutability": "nonpayable",
      "type": "function"
    },
    {
      "inputs": [
        {
          "internalType": "uint256",
          "name": "requestId",
          "type": "uint256"
        },
        {
          "internalType": "uint256[]",
          "name": "randomWords",
          "type": "uint256[]"
        }
      ],
      "name": "rawFulfillRandomWords",
      "outputs": [],
      "stateMutability": "nonpayable",
      "type": "function"
    }
  ],
  "bytecode": "0x6101606040523480156200001257600080fd5b50604051620021d3380380620021d3833981810160405281019062000038919062000393565b858073ffffffffffffffffffffffffffffffffffffffff1660808173ffffffffffffffffffffffffffffffffffffffff1681525050506200008a67b2ea6562ca7d43af60c01b6200022a60201b60201c565b620000a667758f5c7b6a3cb15160c01b6200022a60201b60201c565b8460a08181525050620000ca677a0f43cf1b9feab160c01b6200022a60201b60201c565b8573ffffffffffffffffffffffffffffffffffffffff1660c08173ffffffffffffffffffffffffffffffffffffffff16815250506200011a6785bb3f990a905c1360c01b6200022a60201b60201c565b8360e081815250506200013e67c67d954e4bec83f560c01b6200022a60201b60201c565b8267ffffffffffffffff166101008167ffffffffffffffff16815250506200017767b6fdadde084352ec60c01b6200022a60201b60201c565b8163ffffffff166101208163ffffffff1681525050620001a867bdb0c3af9c93638260c01b6200022a60201b60201c565b6000600160146101000a81548160ff02191690836001811115620001d157620001d06200042f565b5b0217905550620001f267f2c0b82bb9f2558f60c01b6200022a60201b60201c565b426002819055506200021567e0b37385548832a360c01b6200022a60201b60201c565b8061014081815250505050505050506200045e565b50565b600080fd5b600073ffffffffffffffffffffffffffffffffffffffff82169050919050565b60006200025f8262000232565b9050919050565b620002718162000252565b81146200027d57600080fd5b50565b600081519050620002918162000266565b92915050565b6000819050919050565b620002ac8162000297565b8114620002b857600080fd5b50565b600081519050620002cc81620002a1565b92915050565b6000819050919050565b620002e781620002d2565b8114620002f357600080fd5b50565b6000815190506200030781620002dc565b92915050565b600067ffffffffffffffff82169050919050565b6200032c816200030d565b81146200033857600080fd5b50565b6000815190506200034c8162000321565b92915050565b600063ffffffff82169050919050565b6200036d8162000352565b81146200037957600080fd5b50565b6000815190506200038d8162000362565b92915050565b60008060008060008060c08789031215620003b357620003b26200022d565b5b6000620003c389828a0162000280565b9650506020620003d689828a01620002bb565b9550506040620003e989828a01620002f6565b9450506060620003fc89828a016200033b565b93505060806200040f89828a016200037c565b92505060a06200042289828a01620002bb565b9150509295509295509295565b7f4e487b7100000000000000000000000000000000000000000000000000000000600052602160045260246000fd5b60805160a05160c05160e051610100516101205161014051611cf0620004e360003960008181610c890152610dfa0152600081816109cd0152610f260152600081816109aa0152610ec20152600081816109890152610e5e0152600061094d0152600081816103e8015261055d01526000818161046101526104b50152611cf06000f3fe6080604052600436106100f35760003560e01c80635f1b0fd81161008a578063de3d9fb711610059578063de3d9fb7146102fc578063de8be8e714610327578063f43b52cb14610352578063fd6673f51461037d576100f3565b80635f1b0fd81461023d5780636e04ff0d1461026857806391ad27b4146102a6578063c19dd76b146102d1576100f3565b80634585e33b116100c65780634585e33b14610181578063460e2049146101aa578063473f1ddc146101e757806353a2c19a14610212576100f3565b806309bc33a7146100f8578063115cbaf5146101235780631fe543e31461014e5780632cfcc53914610177575b600080fd5b34801561010457600080fd5b5061010d6103a8565b60405161011a919061143b565b60405180910390f35b34801561012f57600080fd5b5061013861040c565b60405161014591906114cd565b60405180910390f35b34801561015a57600080fd5b5061017560048036038101906101709190611681565b61045f565b005b61017f61051f565b005b34801561018d57600080fd5b506101a860048036038101906101a39190611738565b6107ba565b005b3480156101b657600080fd5b506101d160048036038101906101cc9190611785565b610ac7565b6040516101de91906117f3565b60405180910390f35b3480156101f357600080fd5b506101fc610b4b565b60405161020991906117f3565b60405180910390f35b34801561021e57600080fd5b50610227610bb1565b604051610234919061143b565b60405180910390f35b34801561024957600080fd5b50610252610bfc565b60405161025f919061143b565b60405180910390f35b34801561027457600080fd5b5061028f600480360381019061028a91906118c3565b610c45565b60405161029d9291906119af565b60405180910390f35b3480156102b257600080fd5b506102bb610dba565b6040516102c8919061143b565b60405180910390f35b3480156102dd57600080fd5b506102e6610e1e565b6040516102f391906119f8565b60405180910390f35b34801561030857600080fd5b50610311610e82565b60405161031e9190611a36565b60405180910390f35b34801561033357600080fd5b5061033c610ee6565b604051610349919061143b565b60405180910390f35b34801561035e57600080fd5b50610367610f50565b604051610374919061143b565b60405180910390f35b34801561038957600080fd5b50610392610f96565b60405161039f919061143b565b60405180910390f35b60006103be674f8dc670870e0de460c01b610fdf565b6103d2678e760e0eecabed3a60c01b610fdf565b6103e667a83e26a91f2a36cf60c01b610fdf565b7f0000000000000000000000000000000000000000000000000000000000000000905090565b600061042267351f4989597b9d9560c01b610fdf565b610436672c0f2bdc2569364060c01b610fdf565b61044a67c9210aec6801740560c01b610fdf565b600160149054906101000a900460ff16905090565b7f000000000000000000000000000000000000000000000000000000000000000073ffffffffffffffffffffffffffffffffffffffff163373ffffffffffffffffffffffffffffffffffffffff161461051157337f00000000000000000000000000000000000000000000000000000000000000006040517f1cf993f4000000000000000000000000000000000000000000000000000000008152600401610508929190611a51565b60405180910390fd5b61051b8282610fe2565b5050565b61053367789fe1e090c2db4560c01b610fdf565b6105476780a0b5a1b1ae9c0d60c01b610fdf565b61055b679bf589a29bb8eaae60c01b610fdf565b7f00000000000000000000000000000000000000000000000000000000000000003410156105dd57610597679b1732d5ca3a1dd460c01b610fdf565b6105ab676671fdd6e0e3139f60c01b610fdf565b6040517fbd4e069500000000000000000000000000000000000000000000000000000000815260040160405180910390fd5b6105f1678968c107a13fbefd60c01b610fdf565b610605675e864f7b0fe4c95e60c01b610fdf565b610619674db24936500b2bbc60c01b610fdf565b6000600181111561062d5761062c611456565b5b600160149054906101000a900460ff16600181111561064f5761064e611456565b5b146106ae57610668677b15c1773997920360c01b610fdf565b61067c67ae177d8872c8266f60c01b610fdf565b6040517f1425571c00000000000000000000000000000000000000000000000000000000815260040160405180910390fd5b6106c267d05e29b906ddd71b60c01b610fdf565b6106d667d88b8222a8518c3060c01b610fdf565b6106ea67561ce8a06267b86860c01b610fdf565b6000339080600181540180825580915050600190039060005260206000200160009091909190916101000a81548173ffffffffffffffffffffffffffffffffffffffff021916908373ffffffffffffffffffffffffffffffffffffffff16021790555061076167fb03624b43c62abb60c01b610fdf565b610775673061881d115bc6d360c01b610fdf565b3373ffffffffffffffffffffffffffffffffffffffff167f0805e1d667bddb8a95f0f09880cf94f403fb596ce79928d9f29b74203ba284d460405160405180910390a2565b6107ce6753538e1513b2d4e460c01b610fdf565b6107e2673d71a6f594d7c8a460c01b610fdf565b6107f66726ed5a4709519c2860c01b610fdf565b600061081060405180602001604052806000815250610c45565b5090506108276794417ff465c333ee60c01b610fdf565b61083b679fa71c5651ad1f7760c01b610fdf565b806108cf57610854674ef2f2c2f3d05b2860c01b610fdf565b6108686785068885d396c7c660c01b610fdf565b47600080549050600160149054906101000a900460ff16600181111561089157610890611456565b5b6040517fe059521b0000000000000000000000000000000000000000000000000000000081526004016108c693929190611a7a565b60405180910390fd5b6108e3671b564e62272d268a60c01b610fdf565b6108f767bdd96ac4102bf3e160c01b610fdf565b60018060146101000a81548160ff0219169083600181111561091c5761091b611456565b5b021790555061093567e9f05bb64415f4f960c01b610fdf565b6109496739713f961c05856f60c01b610fdf565b60007f000000000000000000000000000000000000000000000000000000000000000073ffffffffffffffffffffffffffffffffffffffff16635d3b1d307f00000000000000000000000000000000000000000000000000000000000000007f000000000000000000000000000000000000000000000000000000000000000060037f000000000000000000000000000000000000000000000000000000000000000060016040518663ffffffff1660e01b8152600401610a0e959493929190611aed565b602060405180830381600087803b158015610a2857600080fd5b505af1158015610a3c573d6000803e3d6000fd5b505050506040513d601f19601f82011682018060405250810190610a609190611b55565b9050610a766755fb61cbb4837b2660c01b610fdf565b610a8a67c4365100686ae21e60c01b610fdf565b7fcd6e45c8998311cab7e9d4385596cac867e20a0587194b954fa3a731c93ce78b81604051610ab9919061143b565b60405180910390a150505050565b6000610add6739a71b4fe715b1ce60c01b610fdf565b610af1676b8a5a882f180eb760c01b610fdf565b610b0567aa6a2e8f9968e86560c01b610fdf565b60008281548110610b1957610b18611b82565b5b9060005260206000200160009054906101000a900473ffffffffffffffffffffffffffffffffffffffff169050919050565b6000610b6167d6733779b0b896b460c01b610fdf565b610b7567339f8fab4de627de60c01b610fdf565b610b896730a7ec0a0b0193b960c01b610fdf565b600160009054906101000a900473ffffffffffffffffffffffffffffffffffffffff16905090565b6000610bc767aad9e186c44d0f4960c01b610fdf565b610bdb6750e4e0644ad1306060c01b610fdf565b610bef677c2079929470c64b60c01b610fdf565b600163ffffffff16905090565b6000610c1267e33003a820b9f19260c01b610fdf565b610c266716c9305454a16be160c01b610fdf565b610c3a67dc35ba5b51c89a9760c01b610fdf565b600361ffff16905090565b60006060610c5d678b08c1eda9f20f2e60c01b610fdf565b610c7167f36ae90414f5872060c01b610fdf565b610c8567cc7c3c493de75b7a60c01b610fdf565b60007f000000000000000000000000000000000000000000000000000000000000000060025442610cb69190611be0565b119050610ccd673e7e58df2acbc9d460c01b610fdf565b610ce1675658f01243f527df60c01b610fdf565b600080600080549050119050610d0167106333c5bea85fe360c01b610fdf565b610d1567dbd536a71cc9270360c01b610fdf565b60008047119050610d30677eae644701e3cabc60c01b610fdf565b610d4467f1f95e5c8f8420d760c01b610fdf565b6000600160149054906101000a900460ff166001811115610d6857610d67611456565b5b60006001811115610d7c57610d7b611456565b5b149050610d9367b30a4892ba82f07f60c01b610fdf565b808015610d9d5750835b8015610da65750825b8015610daf5750815b955050505050915091565b6000610dd067f269428ed5ec024f60c01b610fdf565b610de467dc003eb9d6ad24a060c01b610fdf565b610df8671e5fbd9fe710f46460c01b610fdf565b7f0000000000000000000000000000000000000000000000000000000000000000905090565b6000610e3467599b40f04468bc4560c01b610fdf565b610e48673deebd203c50645e60c01b610fdf565b610e5c675d4b670b411b393b60c01b610fdf565b7f0000000000000000000000000000000000000000000000000000000000000000905090565b6000610e986769a936d9839eee1960c01b610fdf565b610eac67a32918bccdaeecc560c01b610fdf565b610ec067d8f4db981b09441a60c01b610fdf565b7f0000000000000000000000000000000000000000000000000000000000000000905090565b6000610efc673f56092341a3b59e60c01b610fdf565b610f1067a5a4bf458435138260c01b610fdf565b610f2467ae54a9bccd04251860c01b610fdf565b7f000000000000000000000000000000000000000000000000000000000000000063ffffffff16905090565b6000610f6667310adbe6c878bd8e60c01b610fdf565b610f7a67ee2fce75dc055fc460c01b610fdf565b610f8e672dace4c5e8a371bc60c01b610fdf565b600254905090565b6000610fac67f4afb92ebef96cd660c01b610fdf565b610fc067593d4edef263298360c01b610fdf565b610fd467a71d4c96bc3d0b2e60c01b610fdf565b600080549050905090565b50565b610ff667a07836a6c0934c7660c01b610fdf565b61100a679c5bbb4964cc664d60c01b610fdf565b61101e67d9e724edb38975be60c01b610fdf565b600080805490508260008151811061103957611038611b82565b5b602002602001015161104b9190611c43565b905061106167a3fee0b7e7d4047360c01b610fdf565b61107567e44cd591c838c21a60c01b610fdf565b600080828154811061108a57611089611b82565b5b9060005260206000200160009054906101000a900473ffffffffffffffffffffffffffffffffffffffff1690506110cb6764d77f69a358167560c01b610fdf565b80600160006101000a81548173ffffffffffffffffffffffffffffffffffffffff021916908373ffffffffffffffffffffffffffffffffffffffff16021790555061112067791ff35fb6ecbaab60c01b610fdf565b6000600160146101000a81548160ff0219169083600181111561114657611145611456565b5b021790555061115f678cfdfebb5d360c7960c01b610fdf565b600067ffffffffffffffff81111561117a5761117961153e565b5b6040519080825280602002602001820160405280156111a85781602001602082028036833780820191505090505b50600090805190602001906111be92919061137b565b506111d36798ffb55cf1b8e86c60c01b610fdf565b426002819055506111ee6755c6f950d7c6e9ba60c01b610fdf565b61120267b287d75bc0f33efb60c01b610fdf565b60008173ffffffffffffffffffffffffffffffffffffffff164760405161122890611ca5565b60006040518083038185875af1925050503d8060008114611265576040519150601f19603f3d011682016040523d82523d6000602084013e61126a565b606091505b50509050611282676f177a05a0d74eb060c01b610fdf565b611296673b5bbc424380157d60c01b610fdf565b806112f5576112af673157cd277c183ca060c01b610fdf565b6112c367dc3a51b22dbcdf9b60c01b610fdf565b6040517fa1d04b3900000000000000000000000000000000000000000000000000000000815260040160405180910390fd5b611309671936f5541ca2dbc360c01b610fdf565b61131d6757c95726678517a860c01b610fdf565b6113316754583fb1d07b121560c01b610fdf565b8173ffffffffffffffffffffffffffffffffffffffff167f5b690ec4a06fe979403046eaeea5b3ce38524683c3001f662c8b5a829632f7df60405160405180910390a25050505050565b8280548282559060005260206000209081019282156113f4579160200282015b828111156113f35782518260006101000a81548173ffffffffffffffffffffffffffffffffffffffff021916908373ffffffffffffffffffffffffffffffffffffffff1602179055509160200191906001019061139b565b5b5090506114019190611405565b5090565b5b8082111561141e576000816000905550600101611406565b5090565b6000819050919050565b61143581611422565b82525050565b6000602082019050611450600083018461142c565b92915050565b7f4e487b7100000000000000000000000000000000000000000000000000000000600052602160045260246000fd5b6002811061149657611495611456565b5b50565b60008190506114a782611485565b919050565b60006114b782611499565b9050919050565b6114c7816114ac565b82525050565b60006020820190506114e260008301846114be565b92915050565b6000604051905090565b600080fd5b600080fd5b61150581611422565b811461151057600080fd5b50565b600081359050611522816114fc565b92915050565b600080fd5b6000601f19601f8301169050919050565b7f4e487b7100000000000000000000000000000000000000000000000000000000600052604160045260246000fd5b6115768261152d565b810181811067ffffffffffffffff821117156115955761159461153e565b5b80604052505050565b60006115a86114e8565b90506115b4828261156d565b919050565b600067ffffffffffffffff8211156115d4576115d361153e565b5b602082029050602081019050919050565b600080fd5b60006115fd6115f8846115b9565b61159e565b905080838252602082019050602084028301858111156116205761161f6115e5565b5b835b8181101561164957806116358882611513565b845260208401935050602081019050611622565b5050509392505050565b600082601f83011261166857611667611528565b5b81356116788482602086016115ea565b91505092915050565b60008060408385031215611698576116976114f2565b5b60006116a685828601611513565b925050602083013567ffffffffffffffff8111156116c7576116c66114f7565b5b6116d385828601611653565b9150509250929050565b600080fd5b60008083601f8401126116f8576116f7611528565b5b8235905067ffffffffffffffff811115611715576117146116dd565b5b602083019150836001820283011115611731576117306115e5565b5b9250929050565b6000806020838503121561174f5761174e6114f2565b5b600083013567ffffffffffffffff81111561176d5761176c6114f7565b5b611779858286016116e2565b92509250509250929050565b60006020828403121561179b5761179a6114f2565b5b60006117a984828501611513565b91505092915050565b600073ffffffffffffffffffffffffffffffffffffffff82169050919050565b60006117dd826117b2565b9050919050565b6117ed816117d2565b82525050565b600060208201905061180860008301846117e4565b92915050565b600080fd5b600067ffffffffffffffff82111561182e5761182d61153e565b5b6118378261152d565b9050602081019050919050565b82818337600083830152505050565b600061186661186184611813565b61159e565b9050828152602081018484840111156118825761188161180e565b5b61188d848285611844565b509392505050565b600082601f8301126118aa576118a9611528565b5b81356118ba848260208601611853565b91505092915050565b6000602082840312156118d9576118d86114f2565b5b600082013567ffffffffffffffff8111156118f7576118f66114f7565b5b61190384828501611895565b91505092915050565b60008115159050919050565b6119218161190c565b82525050565b600081519050919050565b600082825260208201905092915050565b60005b83811015611961578082015181840152602081019050611946565b83811115611970576000848401525b50505050565b600061198182611927565b61198b8185611932565b935061199b818560208601611943565b6119a48161152d565b840191505092915050565b60006040820190506119c46000830185611918565b81810360208301526119d68184611976565b90509392505050565b6000819050919050565b6119f2816119df565b82525050565b6000602082019050611a0d60008301846119e9565b92915050565b600067ffffffffffffffff82169050919050565b611a3081611a13565b82525050565b6000602082019050611a4b6000830184611a27565b92915050565b6000604082019050611a6660008301856117e4565b611a7360208301846117e4565b9392505050565b6000606082019050611a8f600083018661142c565b611a9c602083018561142c565b611aa9604083018461142c565b949350505050565b600061ffff82169050919050565b611ac881611ab1565b82525050565b600063ffffffff82169050919050565b611ae781611ace565b82525050565b600060a082019050611b0260008301886119e9565b611b0f6020830187611a27565b611b1c6040830186611abf565b611b296060830185611ade565b611b366080830184611ade565b9695505050505050565b600081519050611b4f816114fc565b92915050565b600060208284031215611b6b57611b6a6114f2565b5b6000611b7984828501611b40565b91505092915050565b7f4e487b7100000000000000000000000000000000000000000000000000000000600052603260045260246000fd5b7f4e487b7100000000000000000000000000000000000000000000000000000000600052601160045260246000fd5b6000611beb82611422565b9150611bf683611422565b925082821015611c0957611c08611bb1565b5b828203905092915050565b7f4e487b7100000000000000000000000000000000000000000000000000000000600052601260045260246000fd5b6000611c4e82611422565b9150611c5983611422565b925082611c6957611c68611c14565b5b828206905092915050565b600081905092915050565b50565b6000611c8f600083611c74565b9150611c9a82611c7f565b600082019050919050565b6000611cb082611c82565b915081905091905056fea264697066735822122013c94e8312f2e3ae4d035c036436508b577f3d7f0d94a7fdf2e40120dbf2b86064736f6c63430008090033",
  "linkReferences": {},
  "deployedLinkReferences": {}
}