{
  "_format": "hh-sol-artifact-1",
  "contractName": "Raffle",
  "sourceName": "contracts/Raffle.sol",
  "abi": [
    {
      "inputs": [
        {
          "internalType": "address",
          "name": "_vrfCoordinator",
          "type": "address"
        },
        {
          "internalType": "uint256",
          "name": "entranceFee",
          "type": "uint256"
        },
        {
          "internalType": "bytes32",
          "name": "gasLane",
          "type": "bytes32"
        },
        {
          "internalType": "uint64",
          "name": "subscriptionId",
          "type": "uint64"
        },
        {
          "internalType": "uint32",
          "name": "callbackGasLimit",
          "type": "uint32"
        }
      ],
      "stateMutability": "nonpayable",
      "type": "constructor"
    },
    {
      "inputs": [
        {
          "internalType": "address",
          "name": "have",
          "type": "address"
        },
        {
          "internalType": "address",
          "name": "want",
          "type": "address"
        }
      ],
      "name": "OnlyCoordinatorCanFulfill",
      "type": "error"
    },
    {
      "inputs": [],
      "name": "Raffle__NotEnoughETHEntered",
      "type": "error"
    },
    {
      "inputs": [],
      "name": "Raffle__TransferFailed",
      "type": "error"
    },
    {
      "anonymous": false,
      "inputs": [
        {
          "indexed": true,
          "internalType": "address",
          "name": "player",
          "type": "address"
        }
      ],
      "name": "RaffleEnter",
      "type": "event"
    },
    {
      "anonymous": false,
      "inputs": [
        {
          "indexed": false,
          "internalType": "uint256",
          "name": "requestId",
          "type": "uint256"
        }
      ],
      "name": "RequestedRaffleWinner",
      "type": "event"
    },
    {
      "anonymous": false,
      "inputs": [
        {
          "indexed": true,
          "internalType": "address",
          "name": "winner",
          "type": "address"
        }
      ],
      "name": "WinnerPicked",
      "type": "event"
    },
    {
      "inputs": [],
      "name": "enterRaffle",
      "outputs": [],
      "stateMutability": "payable",
      "type": "function"
    },
    {
      "inputs": [],
      "name": "getEntranceFee",
      "outputs": [
        {
          "internalType": "uint256",
          "name": "",
          "type": "uint256"
        }
      ],
      "stateMutability": "view",
      "type": "function"
    },
    {
      "inputs": [
        {
          "internalType": "uint256",
          "name": "index",
          "type": "uint256"
        }
      ],
      "name": "getPlayers",
      "outputs": [
        {
          "internalType": "address",
          "name": "",
          "type": "address"
        }
      ],
      "stateMutability": "view",
      "type": "function"
    },
    {
      "inputs": [],
      "name": "getRecentWinner",
      "outputs": [
        {
          "internalType": "address",
          "name": "",
          "type": "address"
        }
      ],
      "stateMutability": "view",
      "type": "function"
    },
    {
      "inputs": [
        {
          "internalType": "uint256",
          "name": "requestId",
          "type": "uint256"
        },
        {
          "internalType": "uint256[]",
          "name": "randomWords",
          "type": "uint256[]"
        }
      ],
      "name": "rawFulfillRandomWords",
      "outputs": [],
      "stateMutability": "nonpayable",
      "type": "function"
    },
    {
      "inputs": [],
      "name": "requestRandomWinner",
      "outputs": [],
      "stateMutability": "nonpayable",
      "type": "function"
    }
  ],
  "bytecode": "0x6101406040523480156200001257600080fd5b5060405162000eb238038062000eb2833981810160405281019062000038919062000255565b848073ffffffffffffffffffffffffffffffffffffffff1660808173ffffffffffffffffffffffffffffffffffffffff1681525050508360a081815250508473ffffffffffffffffffffffffffffffffffffffff1660c08173ffffffffffffffffffffffffffffffffffffffff16815250508260e081815250508167ffffffffffffffff166101008167ffffffffffffffff16815250508063ffffffff166101208163ffffffff16815250505050505050620002dd565b600080fd5b600073ffffffffffffffffffffffffffffffffffffffff82169050919050565b60006200012182620000f4565b9050919050565b620001338162000114565b81146200013f57600080fd5b50565b600081519050620001538162000128565b92915050565b6000819050919050565b6200016e8162000159565b81146200017a57600080fd5b50565b6000815190506200018e8162000163565b92915050565b6000819050919050565b620001a98162000194565b8114620001b557600080fd5b50565b600081519050620001c9816200019e565b92915050565b600067ffffffffffffffff82169050919050565b620001ee81620001cf565b8114620001fa57600080fd5b50565b6000815190506200020e81620001e3565b92915050565b600063ffffffff82169050919050565b6200022f8162000214565b81146200023b57600080fd5b50565b6000815190506200024f8162000224565b92915050565b600080600080600060a08688031215620002745762000273620000ef565b5b6000620002848882890162000142565b955050602062000297888289016200017d565b9450506040620002aa88828901620001b8565b9350506060620002bd88828901620001fd565b9250506080620002d0888289016200023e565b9150509295509295909350565b60805160a05160c05160e0516101005161012051610b776200033b6000396000610416015260006103f3015260006103d20152600061039601526000818161013b015261022101526000818161016101526101b50152610b776000f3fe6080604052600436106100555760003560e01c806309bc33a71461005a5780631fe543e3146100855780632cfcc539146100ae578063460e2049146100b8578063473f1ddc146100f5578063522a1f0b14610120575b600080fd5b34801561006657600080fd5b5061006f610137565b60405161007c919061069d565b60405180910390f35b34801561009157600080fd5b506100ac60048036038101906100a79190610851565b61015f565b005b6100b661021f565b005b3480156100c457600080fd5b506100df60048036038101906100da91906108ad565b610321565b6040516100ec919061091b565b60405180910390f35b34801561010157600080fd5b5061010a610368565b604051610117919061091b565b60405180910390f35b34801561012c57600080fd5b50610135610392565b005b60007f0000000000000000000000000000000000000000000000000000000000000000905090565b7f000000000000000000000000000000000000000000000000000000000000000073ffffffffffffffffffffffffffffffffffffffff163373ffffffffffffffffffffffffffffffffffffffff161461021157337f00000000000000000000000000000000000000000000000000000000000000006040517f1cf993f4000000000000000000000000000000000000000000000000000000008152600401610208929190610936565b60405180910390fd5b61021b82826104e5565b5050565b7f0000000000000000000000000000000000000000000000000000000000000000341015610279576040517fbd4e069500000000000000000000000000000000000000000000000000000000815260040160405180910390fd5b6000339080600181540180825580915050600190039060005260206000200160009091909190916101000a81548173ffffffffffffffffffffffffffffffffffffffff021916908373ffffffffffffffffffffffffffffffffffffffff1602179055503373ffffffffffffffffffffffffffffffffffffffff167f0805e1d667bddb8a95f0f09880cf94f403fb596ce79928d9f29b74203ba284d460405160405180910390a2565b60008082815481106103365761033561095f565b5b9060005260206000200160009054906101000a900473ffffffffffffffffffffffffffffffffffffffff169050919050565b6000600160009054906101000a900473ffffffffffffffffffffffffffffffffffffffff16905090565b60007f000000000000000000000000000000000000000000000000000000000000000073ffffffffffffffffffffffffffffffffffffffff16635d3b1d307f00000000000000000000000000000000000000000000000000000000000000007f000000000000000000000000000000000000000000000000000000000000000060037f000000000000000000000000000000000000000000000000000000000000000060016040518663ffffffff1660e01b8152600401610457959493929190610a06565b602060405180830381600087803b15801561047157600080fd5b505af1158015610485573d6000803e3d6000fd5b505050506040513d601f19601f820116820180604052508101906104a99190610a6e565b90507fcd6e45c8998311cab7e9d4385596cac867e20a0587194b954fa3a731c93ce78b816040516104da919061069d565b60405180910390a150565b6000808054905082600081518110610500576104ff61095f565b5b60200260200101516105129190610aca565b905060008082815481106105295761052861095f565b5b9060005260206000200160009054906101000a900473ffffffffffffffffffffffffffffffffffffffff16905080600160006101000a81548173ffffffffffffffffffffffffffffffffffffffff021916908373ffffffffffffffffffffffffffffffffffffffff16021790555060008173ffffffffffffffffffffffffffffffffffffffff16476040516105bd90610b2c565b60006040518083038185875af1925050503d80600081146105fa576040519150601f19603f3d011682016040523d82523d6000602084013e6105ff565b606091505b505090508061063a576040517fa1d04b3900000000000000000000000000000000000000000000000000000000815260040160405180910390fd5b8173ffffffffffffffffffffffffffffffffffffffff167f5b690ec4a06fe979403046eaeea5b3ce38524683c3001f662c8b5a829632f7df60405160405180910390a25050505050565b6000819050919050565b61069781610684565b82525050565b60006020820190506106b2600083018461068e565b92915050565b6000604051905090565b600080fd5b600080fd5b6106d581610684565b81146106e057600080fd5b50565b6000813590506106f2816106cc565b92915050565b600080fd5b6000601f19601f8301169050919050565b7f4e487b7100000000000000000000000000000000000000000000000000000000600052604160045260246000fd5b610746826106fd565b810181811067ffffffffffffffff821117156107655761076461070e565b5b80604052505050565b60006107786106b8565b9050610784828261073d565b919050565b600067ffffffffffffffff8211156107a4576107a361070e565b5b602082029050602081019050919050565b600080fd5b60006107cd6107c884610789565b61076e565b905080838252602082019050602084028301858111156107f0576107ef6107b5565b5b835b81811015610819578061080588826106e3565b8452602084019350506020810190506107f2565b5050509392505050565b600082601f830112610838576108376106f8565b5b81356108488482602086016107ba565b91505092915050565b60008060408385031215610868576108676106c2565b5b6000610876858286016106e3565b925050602083013567ffffffffffffffff811115610897576108966106c7565b5b6108a385828601610823565b9150509250929050565b6000602082840312156108c3576108c26106c2565b5b60006108d1848285016106e3565b91505092915050565b600073ffffffffffffffffffffffffffffffffffffffff82169050919050565b6000610905826108da565b9050919050565b610915816108fa565b82525050565b6000602082019050610930600083018461090c565b92915050565b600060408201905061094b600083018561090c565b610958602083018461090c565b9392505050565b7f4e487b7100000000000000000000000000000000000000000000000000000000600052603260045260246000fd5b6000819050919050565b6109a18161098e565b82525050565b600067ffffffffffffffff82169050919050565b6109c4816109a7565b82525050565b600061ffff82169050919050565b6109e1816109ca565b82525050565b600063ffffffff82169050919050565b610a00816109e7565b82525050565b600060a082019050610a1b6000830188610998565b610a2860208301876109bb565b610a3560408301866109d8565b610a4260608301856109f7565b610a4f60808301846109f7565b9695505050505050565b600081519050610a68816106cc565b92915050565b600060208284031215610a8457610a836106c2565b5b6000610a9284828501610a59565b91505092915050565b7f4e487b7100000000000000000000000000000000000000000000000000000000600052601260045260246000fd5b6000610ad582610684565b9150610ae083610684565b925082610af057610aef610a9b565b5b828206905092915050565b600081905092915050565b50565b6000610b16600083610afb565b9150610b2182610b06565b600082019050919050565b6000610b3782610b09565b915081905091905056fea2646970667358221220a0af7692788ea61c26e0fd37fe9e5a805ffe232621b3d784957edde25c67f8ba64736f6c63430008090033",
  "linkReferences": {},
  "deployedLinkReferences": {}
}