{
  "_format": "hh-sol-artifact-1",
  "contractName": "Raffle",
  "sourceName": "contracts/Raffle.sol",
  "abi": [
    {
      "inputs": [
        {
          "internalType": "address",
          "name": "_vrfCoordinatorV2",
          "type": "address"
        },
        {
          "internalType": "uint256",
          "name": "entranceFee",
          "type": "uint256"
        },
        {
          "internalType": "bytes32",
          "name": "gasLane",
          "type": "bytes32"
        },
        {
          "internalType": "uint64",
          "name": "subscriptionId",
          "type": "uint64"
        },
        {
          "internalType": "uint32",
          "name": "callbackGasLimit",
          "type": "uint32"
        },
        {
          "internalType": "uint256",
          "name": "interval",
          "type": "uint256"
        }
      ],
      "stateMutability": "nonpayable",
      "type": "constructor"
    },
    {
      "inputs": [
        {
          "internalType": "address",
          "name": "have",
          "type": "address"
        },
        {
          "internalType": "address",
          "name": "want",
          "type": "address"
        }
      ],
      "name": "OnlyCoordinatorCanFulfill",
      "type": "error"
    },
    {
      "inputs": [
        {
          "internalType": "uint256",
          "name": "currentBalance",
          "type": "uint256"
        },
        {
          "internalType": "uint256",
          "name": "numPlayers",
          "type": "uint256"
        },
        {
          "internalType": "uint256",
          "name": "raffleState",
          "type": "uint256"
        }
      ],
      "name": "Raffle_UpkeepNotNeeded",
      "type": "error"
    },
    {
      "inputs": [],
      "name": "Raffle__NotEnoughETHEntered",
      "type": "error"
    },
    {
      "inputs": [],
      "name": "Raffle__NotOpen",
      "type": "error"
    },
    {
      "inputs": [],
      "name": "Raffle__TransferFailed",
      "type": "error"
    },
    {
      "anonymous": false,
      "inputs": [
        {
          "indexed": true,
          "internalType": "address",
          "name": "player",
          "type": "address"
        }
      ],
      "name": "RaffleEnter",
      "type": "event"
    },
    {
      "anonymous": false,
      "inputs": [
        {
          "indexed": false,
          "internalType": "uint256",
          "name": "requestId",
          "type": "uint256"
        }
      ],
      "name": "RequestedRaffleWinner",
      "type": "event"
    },
    {
      "anonymous": false,
      "inputs": [
        {
          "indexed": true,
          "internalType": "address",
          "name": "winner",
          "type": "address"
        }
      ],
      "name": "WinnerPicked",
      "type": "event"
    },
    {
      "inputs": [
        {
          "internalType": "bytes",
          "name": "",
          "type": "bytes"
        }
      ],
      "name": "checkUpkeep",
      "outputs": [
        {
          "internalType": "bool",
          "name": "upkeepNeeded",
          "type": "bool"
        },
        {
          "internalType": "bytes",
          "name": "",
          "type": "bytes"
        }
      ],
      "stateMutability": "nonpayable",
      "type": "function"
    },
    {
      "inputs": [],
      "name": "enterRaffle",
      "outputs": [],
      "stateMutability": "payable",
      "type": "function"
    },
    {
      "inputs": [],
      "name": "getEntranceFee",
      "outputs": [
        {
          "internalType": "uint256",
          "name": "",
          "type": "uint256"
        }
      ],
      "stateMutability": "view",
      "type": "function"
    },
    {
      "inputs": [],
      "name": "getInterval",
      "outputs": [
        {
          "internalType": "uint256",
          "name": "",
          "type": "uint256"
        }
      ],
      "stateMutability": "view",
      "type": "function"
    },
    {
      "inputs": [],
      "name": "getLatestTimestamp",
      "outputs": [
        {
          "internalType": "uint256",
          "name": "",
          "type": "uint256"
        }
      ],
      "stateMutability": "view",
      "type": "function"
    },
    {
      "inputs": [],
      "name": "getNumWords",
      "outputs": [
        {
          "internalType": "uint256",
          "name": "",
          "type": "uint256"
        }
      ],
      "stateMutability": "pure",
      "type": "function"
    },
    {
      "inputs": [],
      "name": "getNumberOfPlayers",
      "outputs": [
        {
          "internalType": "uint256",
          "name": "",
          "type": "uint256"
        }
      ],
      "stateMutability": "view",
      "type": "function"
    },
    {
      "inputs": [
        {
          "internalType": "uint256",
          "name": "index",
          "type": "uint256"
        }
      ],
      "name": "getPlayers",
      "outputs": [
        {
          "internalType": "address",
          "name": "",
          "type": "address"
        }
      ],
      "stateMutability": "view",
      "type": "function"
    },
    {
      "inputs": [],
      "name": "getRaffleState",
      "outputs": [
        {
          "internalType": "enum Raffle.RaffleState",
          "name": "",
          "type": "uint8"
        }
      ],
      "stateMutability": "view",
      "type": "function"
    },
    {
      "inputs": [],
      "name": "getRecentWinner",
      "outputs": [
        {
          "internalType": "address",
          "name": "",
          "type": "address"
        }
      ],
      "stateMutability": "view",
      "type": "function"
    },
    {
      "inputs": [],
      "name": "getRequestConfirmations",
      "outputs": [
        {
          "internalType": "uint256",
          "name": "",
          "type": "uint256"
        }
      ],
      "stateMutability": "pure",
      "type": "function"
    },
    {
      "inputs": [
        {
          "internalType": "bytes",
          "name": "",
          "type": "bytes"
        }
      ],
      "name": "performUpkeep",
      "outputs": [],
      "stateMutability": "nonpayable",
      "type": "function"
    },
    {
      "inputs": [
        {
          "internalType": "uint256",
          "name": "requestId",
          "type": "uint256"
        },
        {
          "internalType": "uint256[]",
          "name": "randomWords",
          "type": "uint256[]"
        }
      ],
      "name": "rawFulfillRandomWords",
      "outputs": [],
      "stateMutability": "nonpayable",
      "type": "function"
    }
  ],
  "bytecode": "0x6101606040523480156200001257600080fd5b506040516200182438038062001824833981810160405281019062000038919062000294565b858073ffffffffffffffffffffffffffffffffffffffff1660808173ffffffffffffffffffffffffffffffffffffffff1681525050508460a081815250508573ffffffffffffffffffffffffffffffffffffffff1660c08173ffffffffffffffffffffffffffffffffffffffff16815250508360e081815250508267ffffffffffffffff166101008167ffffffffffffffff16815250508163ffffffff166101208163ffffffff16815250506000600160146101000a81548160ff021916908360018111156200010d576200010c62000330565b5b0217905550426002819055508061014081815250505050505050506200035f565b600080fd5b600073ffffffffffffffffffffffffffffffffffffffff82169050919050565b6000620001608262000133565b9050919050565b620001728162000153565b81146200017e57600080fd5b50565b600081519050620001928162000167565b92915050565b6000819050919050565b620001ad8162000198565b8114620001b957600080fd5b50565b600081519050620001cd81620001a2565b92915050565b6000819050919050565b620001e881620001d3565b8114620001f457600080fd5b50565b6000815190506200020881620001dd565b92915050565b600067ffffffffffffffff82169050919050565b6200022d816200020e565b81146200023957600080fd5b50565b6000815190506200024d8162000222565b92915050565b600063ffffffff82169050919050565b6200026e8162000253565b81146200027a57600080fd5b50565b6000815190506200028e8162000263565b92915050565b60008060008060008060c08789031215620002b457620002b36200012e565b5b6000620002c489828a0162000181565b9650506020620002d789828a01620001bc565b9550506040620002ea89828a01620001f7565b9450506060620002fd89828a016200023c565b93505060806200031089828a016200027d565b92505060a06200032389828a01620001bc565b9150509295509295509295565b7f4e487b7100000000000000000000000000000000000000000000000000000000600052602160045260246000fd5b60805160a05160c05160e051610100516101205161014051611455620003cf6000396000818161080201526108ab0152600061069b01526000610678015260006106570152600061061b0152600081816102fa01526103f7015260008181610337015261038b01526114556000f3fe6080604052600436106100c25760003560e01c8063473f1ddc1161007f5780636e04ff0d116100595780636e04ff0d1461023757806391ad27b414610275578063f43b52cb146102a0578063fd6673f5146102cb576100c2565b8063473f1ddc146101b657806353a2c19a146101e15780635f1b0fd81461020c576100c2565b806309bc33a7146100c7578063115cbaf5146100f25780631fe543e31461011d5780632cfcc539146101465780634585e33b14610150578063460e204914610179575b600080fd5b3480156100d357600080fd5b506100dc6102f6565b6040516100e99190610bd6565b60405180910390f35b3480156100fe57600080fd5b5061010761031e565b6040516101149190610c68565b60405180910390f35b34801561012957600080fd5b50610144600480360381019061013f9190610e1c565b610335565b005b61014e6103f5565b005b34801561015c57600080fd5b5061017760048036038101906101729190610ed3565b610564565b005b34801561018557600080fd5b506101a0600480360381019061019b9190610f20565b61076d565b6040516101ad9190610f8e565b60405180910390f35b3480156101c257600080fd5b506101cb6107b4565b6040516101d89190610f8e565b60405180910390f35b3480156101ed57600080fd5b506101f66107de565b6040516102039190610bd6565b60405180910390f35b34801561021857600080fd5b506102216107ed565b60405161022e9190610bd6565b60405180910390f35b34801561024357600080fd5b5061025e6004803603810190610259919061105e565b6107fa565b60405161026c92919061114a565b60405180910390f35b34801561028157600080fd5b5061028a6108a7565b6040516102979190610bd6565b60405180910390f35b3480156102ac57600080fd5b506102b56108cf565b6040516102c29190610bd6565b60405180910390f35b3480156102d757600080fd5b506102e06108d9565b6040516102ed9190610bd6565b60405180910390f35b60007f0000000000000000000000000000000000000000000000000000000000000000905090565b6000600160149054906101000a900460ff16905090565b7f000000000000000000000000000000000000000000000000000000000000000073ffffffffffffffffffffffffffffffffffffffff163373ffffffffffffffffffffffffffffffffffffffff16146103e757337f00000000000000000000000000000000000000000000000000000000000000006040517f1cf993f40000000000000000000000000000000000000000000000000000000081526004016103de92919061117a565b60405180910390fd5b6103f182826108e5565b5050565b7f000000000000000000000000000000000000000000000000000000000000000034101561044f576040517fbd4e069500000000000000000000000000000000000000000000000000000000815260040160405180910390fd5b6000600181111561046357610462610bf1565b5b600160149054906101000a900460ff16600181111561048557610484610bf1565b5b146104bc576040517f1425571c00000000000000000000000000000000000000000000000000000000815260040160405180910390fd5b6000339080600181540180825580915050600190039060005260206000200160009091909190916101000a81548173ffffffffffffffffffffffffffffffffffffffff021916908373ffffffffffffffffffffffffffffffffffffffff1602179055503373ffffffffffffffffffffffffffffffffffffffff167f0805e1d667bddb8a95f0f09880cf94f403fb596ce79928d9f29b74203ba284d460405160405180910390a2565b600061057e604051806020016040528060008152506107fa565b509050806105ed5747600080549050600160149054906101000a900460ff1660018111156105af576105ae610bf1565b5b6040517fe059521b0000000000000000000000000000000000000000000000000000000081526004016105e4939291906111a3565b60405180910390fd5b60018060146101000a81548160ff0219169083600181111561061257610611610bf1565b5b021790555060007f000000000000000000000000000000000000000000000000000000000000000073ffffffffffffffffffffffffffffffffffffffff16635d3b1d307f00000000000000000000000000000000000000000000000000000000000000007f000000000000000000000000000000000000000000000000000000000000000060037f000000000000000000000000000000000000000000000000000000000000000060016040518663ffffffff1660e01b81526004016106dc959493929190611252565b602060405180830381600087803b1580156106f657600080fd5b505af115801561070a573d6000803e3d6000fd5b505050506040513d601f19601f8201168201806040525081019061072e91906112ba565b90507fcd6e45c8998311cab7e9d4385596cac867e20a0587194b954fa3a731c93ce78b8160405161075f9190610bd6565b60405180910390a150505050565b6000808281548110610782576107816112e7565b5b9060005260206000200160009054906101000a900473ffffffffffffffffffffffffffffffffffffffff169050919050565b6000600160009054906101000a900473ffffffffffffffffffffffffffffffffffffffff16905090565b6000600163ffffffff16905090565b6000600361ffff16905090565b6000606060007f00000000000000000000000000000000000000000000000000000000000000006002544261082f9190611345565b119050600080600080549050119050600080471190506000600160149054906101000a900460ff16600181111561086957610868610bf1565b5b6000600181111561087d5761087c610bf1565b5b14905080801561088a5750835b80156108935750825b801561089c5750815b955050505050915091565b60007f0000000000000000000000000000000000000000000000000000000000000000905090565b6000600254905090565b60008080549050905090565b6000808054905082600081518110610900576108ff6112e7565b5b602002602001015161091291906113a8565b90506000808281548110610929576109286112e7565b5b9060005260206000200160009054906101000a900473ffffffffffffffffffffffffffffffffffffffff16905080600160006101000a81548173ffffffffffffffffffffffffffffffffffffffff021916908373ffffffffffffffffffffffffffffffffffffffff1602179055506000600160146101000a81548160ff021916908360018111156109bd576109bc610bf1565b5b0217905550600067ffffffffffffffff8111156109dd576109dc610cd9565b5b604051908082528060200260200182016040528015610a0b5781602001602082028036833780820191505090505b5060009080519060200190610a21929190610b16565b504260028190555060008173ffffffffffffffffffffffffffffffffffffffff1647604051610a4f9061140a565b60006040518083038185875af1925050503d8060008114610a8c576040519150601f19603f3d011682016040523d82523d6000602084013e610a91565b606091505b5050905080610acc576040517fa1d04b3900000000000000000000000000000000000000000000000000000000815260040160405180910390fd5b8173ffffffffffffffffffffffffffffffffffffffff167f5b690ec4a06fe979403046eaeea5b3ce38524683c3001f662c8b5a829632f7df60405160405180910390a25050505050565b828054828255906000526020600020908101928215610b8f579160200282015b82811115610b8e5782518260006101000a81548173ffffffffffffffffffffffffffffffffffffffff021916908373ffffffffffffffffffffffffffffffffffffffff16021790555091602001919060010190610b36565b5b509050610b9c9190610ba0565b5090565b5b80821115610bb9576000816000905550600101610ba1565b5090565b6000819050919050565b610bd081610bbd565b82525050565b6000602082019050610beb6000830184610bc7565b92915050565b7f4e487b7100000000000000000000000000000000000000000000000000000000600052602160045260246000fd5b60028110610c3157610c30610bf1565b5b50565b6000819050610c4282610c20565b919050565b6000610c5282610c34565b9050919050565b610c6281610c47565b82525050565b6000602082019050610c7d6000830184610c59565b92915050565b6000604051905090565b600080fd5b600080fd5b610ca081610bbd565b8114610cab57600080fd5b50565b600081359050610cbd81610c97565b92915050565b600080fd5b6000601f19601f8301169050919050565b7f4e487b7100000000000000000000000000000000000000000000000000000000600052604160045260246000fd5b610d1182610cc8565b810181811067ffffffffffffffff82111715610d3057610d2f610cd9565b5b80604052505050565b6000610d43610c83565b9050610d4f8282610d08565b919050565b600067ffffffffffffffff821115610d6f57610d6e610cd9565b5b602082029050602081019050919050565b600080fd5b6000610d98610d9384610d54565b610d39565b90508083825260208201905060208402830185811115610dbb57610dba610d80565b5b835b81811015610de45780610dd08882610cae565b845260208401935050602081019050610dbd565b5050509392505050565b600082601f830112610e0357610e02610cc3565b5b8135610e13848260208601610d85565b91505092915050565b60008060408385031215610e3357610e32610c8d565b5b6000610e4185828601610cae565b925050602083013567ffffffffffffffff811115610e6257610e61610c92565b5b610e6e85828601610dee565b9150509250929050565b600080fd5b60008083601f840112610e9357610e92610cc3565b5b8235905067ffffffffffffffff811115610eb057610eaf610e78565b5b602083019150836001820283011115610ecc57610ecb610d80565b5b9250929050565b60008060208385031215610eea57610ee9610c8d565b5b600083013567ffffffffffffffff811115610f0857610f07610c92565b5b610f1485828601610e7d565b92509250509250929050565b600060208284031215610f3657610f35610c8d565b5b6000610f4484828501610cae565b91505092915050565b600073ffffffffffffffffffffffffffffffffffffffff82169050919050565b6000610f7882610f4d565b9050919050565b610f8881610f6d565b82525050565b6000602082019050610fa36000830184610f7f565b92915050565b600080fd5b600067ffffffffffffffff821115610fc957610fc8610cd9565b5b610fd282610cc8565b9050602081019050919050565b82818337600083830152505050565b6000611001610ffc84610fae565b610d39565b90508281526020810184848401111561101d5761101c610fa9565b5b611028848285610fdf565b509392505050565b600082601f83011261104557611044610cc3565b5b8135611055848260208601610fee565b91505092915050565b60006020828403121561107457611073610c8d565b5b600082013567ffffffffffffffff81111561109257611091610c92565b5b61109e84828501611030565b91505092915050565b60008115159050919050565b6110bc816110a7565b82525050565b600081519050919050565b600082825260208201905092915050565b60005b838110156110fc5780820151818401526020810190506110e1565b8381111561110b576000848401525b50505050565b600061111c826110c2565b61112681856110cd565b93506111368185602086016110de565b61113f81610cc8565b840191505092915050565b600060408201905061115f60008301856110b3565b81810360208301526111718184611111565b90509392505050565b600060408201905061118f6000830185610f7f565b61119c6020830184610f7f565b9392505050565b60006060820190506111b86000830186610bc7565b6111c56020830185610bc7565b6111d26040830184610bc7565b949350505050565b6000819050919050565b6111ed816111da565b82525050565b600067ffffffffffffffff82169050919050565b611210816111f3565b82525050565b600061ffff82169050919050565b61122d81611216565b82525050565b600063ffffffff82169050919050565b61124c81611233565b82525050565b600060a08201905061126760008301886111e4565b6112746020830187611207565b6112816040830186611224565b61128e6060830185611243565b61129b6080830184611243565b9695505050505050565b6000815190506112b481610c97565b92915050565b6000602082840312156112d0576112cf610c8d565b5b60006112de848285016112a5565b91505092915050565b7f4e487b7100000000000000000000000000000000000000000000000000000000600052603260045260246000fd5b7f4e487b7100000000000000000000000000000000000000000000000000000000600052601160045260246000fd5b600061135082610bbd565b915061135b83610bbd565b92508282101561136e5761136d611316565b5b828203905092915050565b7f4e487b7100000000000000000000000000000000000000000000000000000000600052601260045260246000fd5b60006113b382610bbd565b91506113be83610bbd565b9250826113ce576113cd611379565b5b828206905092915050565b600081905092915050565b50565b60006113f46000836113d9565b91506113ff826113e4565b600082019050919050565b6000611415826113e7565b915081905091905056fea264697066735822122039a5df2b5bb079b385084a8dc72770eed21225e544c124cba4421b9bef17b8cb64736f6c63430008090033",
  "linkReferences": {},
  "deployedLinkReferences": {}
}